{
  "contractName": "Bank",
  "abi": [
    {
      "inputs": [
        {
          "internalType": "address",
          "name": "_coin",
          "type": "address"
        },
        {
          "internalType": "uint256",
          "name": "_timePeriod",
          "type": "uint256"
        }
      ],
      "stateMutability": "nonpayable",
      "type": "constructor"
    },
    {
      "inputs": [],
      "name": "coin",
      "outputs": [
        {
          "internalType": "address",
          "name": "",
          "type": "address"
        }
      ],
      "stateMutability": "view",
      "type": "function",
      "constant": true
    },
    {
      "inputs": [],
      "name": "createTime",
      "outputs": [
        {
          "internalType": "uint256",
          "name": "",
          "type": "uint256"
        }
      ],
      "stateMutability": "view",
      "type": "function",
      "constant": true
    },
    {
      "inputs": [
        {
          "internalType": "address",
          "name": "",
          "type": "address"
        }
      ],
      "name": "deposits",
      "outputs": [
        {
          "internalType": "uint256",
          "name": "",
          "type": "uint256"
        }
      ],
      "stateMutability": "view",
      "type": "function",
      "constant": true
    },
    {
      "inputs": [],
      "name": "owner",
      "outputs": [
        {
          "internalType": "address",
          "name": "",
          "type": "address"
        }
      ],
      "stateMutability": "view",
      "type": "function",
      "constant": true
    },
    {
      "inputs": [],
      "name": "timePeriod",
      "outputs": [
        {
          "internalType": "uint256",
          "name": "",
          "type": "uint256"
        }
      ],
      "stateMutability": "view",
      "type": "function",
      "constant": true
    },
    {
      "inputs": [],
      "name": "totalDeposits",
      "outputs": [
        {
          "internalType": "uint256",
          "name": "",
          "type": "uint256"
        }
      ],
      "stateMutability": "view",
      "type": "function",
      "constant": true
    },
    {
      "inputs": [
        {
          "internalType": "uint256",
          "name": "",
          "type": "uint256"
        }
      ],
      "name": "totalRewardPool",
      "outputs": [
        {
          "internalType": "uint256",
          "name": "",
          "type": "uint256"
        }
      ],
      "stateMutability": "view",
      "type": "function",
      "constant": true
    },
    {
      "inputs": [
        {
          "internalType": "uint256",
          "name": "_amount",
          "type": "uint256"
        }
      ],
      "name": "setRewardPool",
      "outputs": [],
      "stateMutability": "nonpayable",
      "type": "function"
    },
    {
      "inputs": [
        {
          "internalType": "uint256",
          "name": "_amount",
          "type": "uint256"
        }
      ],
      "name": "deposit",
      "outputs": [],
      "stateMutability": "nonpayable",
      "type": "function"
    },
    {
      "inputs": [],
      "name": "withdraw",
      "outputs": [],
      "stateMutability": "nonpayable",
      "type": "function"
    },
    {
      "inputs": [],
      "name": "withdrawRewardPool",
      "outputs": [],
      "stateMutability": "nonpayable",
      "type": "function"
    }
  ],
  "bytecode": "0x60806040523480156200001157600080fd5b506040516200163538038062001635833981810160405281019062000037919062000173565b816000806101000a81548173ffffffffffffffffffffffffffffffffffffffff021916908373ffffffffffffffffffffffffffffffffffffffff16021790555033600160006101000a81548173ffffffffffffffffffffffffffffffffffffffff021916908373ffffffffffffffffffffffffffffffffffffffff16021790555080600581905550426006819055505050620001ba565b600080fd5b600073ffffffffffffffffffffffffffffffffffffffff82169050919050565b60006200010082620000d3565b9050919050565b6200011281620000f3565b81146200011e57600080fd5b50565b600081519050620001328162000107565b92915050565b6000819050919050565b6200014d8162000138565b81146200015957600080fd5b50565b6000815190506200016d8162000142565b92915050565b600080604083850312156200018d576200018c620000ce565b5b60006200019d8582860162000121565b9250506020620001b0858286016200015c565b9150509250929050565b61146b80620001ca6000396000f3fe608060405234801561001057600080fd5b50600436106100a95760003560e01c806361dcd7ab1161007157806361dcd7ab1461011a5780637d882097146101385780638da5cb5b146101565780639e7a186f14610174578063b6b55f25146101a4578063fc7e286d146101c0576100a9565b806311df9995146100ae5780631da4ed85146100cc5780631e0e065f146100e85780633ccfd60b146100f25780633e79d1e1146100fc575b600080fd5b6100b66101f0565b6040516100c39190610d7a565b60405180910390f35b6100e660048036038101906100e19190610dd0565b610214565b005b6100f06104b3565b005b6100fa610736565b005b6101046109ea565b6040516101119190610e0c565b60405180910390f35b6101226109f0565b60405161012f9190610e0c565b60405180910390f35b6101406109f6565b60405161014d9190610e0c565b60405180910390f35b61015e6109fc565b60405161016b9190610d7a565b60405180910390f35b61018e60048036038101906101899190610dd0565b610a22565b60405161019b9190610e0c565b60405180910390f35b6101be60048036038101906101b99190610dd0565b610a3d565b005b6101da60048036038101906101d59190610e53565b610be6565b6040516101e79190610e0c565b60405180910390f35b60008054906101000a900473ffffffffffffffffffffffffffffffffffffffff1681565b600160009054906101000a900473ffffffffffffffffffffffffffffffffffffffff1673ffffffffffffffffffffffffffffffffffffffff163373ffffffffffffffffffffffffffffffffffffffff16146102a4576040517f08c379a000000000000000000000000000000000000000000000000000000000815260040161029b90610edd565b60405180910390fd5b600060026000600381106102bb576102ba610efd565b5b0154146102fd576040517f08c379a00000000000000000000000000000000000000000000000000000000081526004016102f490610f78565b60405180910390fd5b6000811415610341576040517f08c379a000000000000000000000000000000000000000000000000000000000815260040161033890610fe4565b60405180910390fd5b60008054906101000a900473ffffffffffffffffffffffffffffffffffffffff1673ffffffffffffffffffffffffffffffffffffffff166323b872dd3330846040518463ffffffff1660e01b815260040161039e93929190611004565b6020604051808303816000875af11580156103bd573d6000803e3d6000fd5b505050506040513d601f19601f820116820180604052508101906103e19190611073565b5060646014826103f191906110cf565b6103fb9190611158565b60026000600381106104105761040f610efd565b5b0160008282546104209190611189565b925050819055506064601e8261043691906110cf565b6104409190611158565b600260016003811061045557610454610efd565b5b0160008282546104659190611189565b92505081905550606460328261047b91906110cf565b6104859190611158565b6002806003811061049957610498610efd565b5b0160008282546104a99190611189565b9250508190555050565b600160009054906101000a900473ffffffffffffffffffffffffffffffffffffffff1673ffffffffffffffffffffffffffffffffffffffff163373ffffffffffffffffffffffffffffffffffffffff1614610543576040517f08c379a000000000000000000000000000000000000000000000000000000000815260040161053a90610edd565b60405180910390fd5b600554600261055291906110cf565b60065461055f9190611189565b42116105a0576040517f08c379a00000000000000000000000000000000000000000000000000000000081526004016105979061122b565b60405180910390fd5b6000600854146105e5576040517f08c379a00000000000000000000000000000000000000000000000000000000081526004016105dc90611297565b60405180910390fd5b6000600280600381106105fb576105fa610efd565b5b0154600260016003811061061257610611610efd565b5b0154600260006003811061062957610628610efd565b5b01546106359190611189565b61063f9190611189565b90506000600260006003811061065857610657610efd565b5b01819055506000600260016003811061067457610673610efd565b5b018190555060006002806003811061068f5761068e610efd565b5b018190555060008054906101000a900473ffffffffffffffffffffffffffffffffffffffff1673ffffffffffffffffffffffffffffffffffffffff1663a9059cbb33836040518363ffffffff1660e01b81526004016106ef9291906112b7565b6020604051808303816000875af115801561070e573d6000803e3d6000fd5b505050506040513d601f19601f820116820180604052508101906107329190611073565b5050565b600554600261074591906110cf565b6006546107529190611189565b4211610793576040517f08c379a000000000000000000000000000000000000000000000000000000000815260040161078a9061122b565b60405180910390fd5b6000600760003373ffffffffffffffffffffffffffffffffffffffff1673ffffffffffffffffffffffffffffffffffffffff1681526020019081526020016000205411610815576040517f08c379a000000000000000000000000000000000000000000000000000000000815260040161080c9061132c565b60405180910390fd5b600061085f600760003373ffffffffffffffffffffffffffffffffffffffff1673ffffffffffffffffffffffffffffffffffffffff16815260200190815260200160002054610bfe565b600760003373ffffffffffffffffffffffffffffffffffffffff1673ffffffffffffffffffffffffffffffffffffffff168152602001908152602001600020546108a99190611189565b9050600760003373ffffffffffffffffffffffffffffffffffffffff1673ffffffffffffffffffffffffffffffffffffffff16815260200190815260200160002054600860008282546108fc919061134c565b925050819055506000600760003373ffffffffffffffffffffffffffffffffffffffff1673ffffffffffffffffffffffffffffffffffffffff1681526020019081526020016000208190555060008054906101000a900473ffffffffffffffffffffffffffffffffffffffff1673ffffffffffffffffffffffffffffffffffffffff1663a9059cbb33836040518363ffffffff1660e01b81526004016109a39291906112b7565b6020604051808303816000875af11580156109c2573d6000803e3d6000fd5b505050506040513d601f19601f820116820180604052508101906109e69190611073565b5050565b60055481565b60065481565b60085481565b600160009054906101000a900473ffffffffffffffffffffffffffffffffffffffff1681565b60028160038110610a3257600080fd5b016000915090505481565b6000811415610a81576040517f08c379a0000000000000000000000000000000000000000000000000000000008152600401610a7890610fe4565b60405180910390fd5b600554600654610a919190611189565b421115610ad3576040517f08c379a0000000000000000000000000000000000000000000000000000000008152600401610aca906113cc565b60405180910390fd5b60008054906101000a900473ffffffffffffffffffffffffffffffffffffffff1673ffffffffffffffffffffffffffffffffffffffff166323b872dd3330846040518463ffffffff1660e01b8152600401610b3093929190611004565b6020604051808303816000875af1158015610b4f573d6000803e3d6000fd5b505050506040513d601f19601f82011682018060405250810190610b739190611073565b5080600760003373ffffffffffffffffffffffffffffffffffffffff1673ffffffffffffffffffffffffffffffffffffffff1681526020019081526020016000206000828254610bc39190611189565b925050819055508060086000828254610bdc9190611189565b9250508190555050565b60076020528060005260406000206000915090505481565b60008060065442610c0f919061134c565b905060006005546002610c2291906110cf565b821015610c3457600092505050610c87565b6005546003610c4391906110cf565b821015610c535760019050610c78565b6005546004610c6291906110cf565b821015610c725760029050610c77565b600390505b5b610c828482610c8c565b925050505b919050565b60008060005b83811015610ceb5760028160038110610cae57610cad610efd565b5b015482610cbb9190611189565b9150600060028260038110610cd357610cd2610efd565b5b01819055508080610ce3906113ec565b915050610c92565b5060006008548286610cfd91906110cf565b610d079190611158565b90508082610d15919061134c565b60028560038110610d2957610d28610efd565b5b0181905550809250505092915050565b600073ffffffffffffffffffffffffffffffffffffffff82169050919050565b6000610d6482610d39565b9050919050565b610d7481610d59565b82525050565b6000602082019050610d8f6000830184610d6b565b92915050565b600080fd5b6000819050919050565b610dad81610d9a565b8114610db857600080fd5b50565b600081359050610dca81610da4565b92915050565b600060208284031215610de657610de5610d95565b5b6000610df484828501610dbb565b91505092915050565b610e0681610d9a565b82525050565b6000602082019050610e216000830184610dfd565b92915050565b610e3081610d59565b8114610e3b57600080fd5b50565b600081359050610e4d81610e27565b92915050565b600060208284031215610e6957610e68610d95565b5b6000610e7784828501610e3e565b91505092915050565b600082825260208201905092915050565b7f6e6f74206f776e65720000000000000000000000000000000000000000000000600082015250565b6000610ec7600983610e80565b9150610ed282610e91565b602082019050919050565b60006020820190508181036000830152610ef681610eba565b9050919050565b7f4e487b7100000000000000000000000000000000000000000000000000000000600052603260045260246000fd5b7f526577617264506f6f6c20616c72656164792073657400000000000000000000600082015250565b6000610f62601683610e80565b9150610f6d82610f2c565b602082019050919050565b60006020820190508181036000830152610f9181610f55565b9050919050565b7f5f616d6f756e742063616e206e6f742062652030000000000000000000000000600082015250565b6000610fce601483610e80565b9150610fd982610f98565b602082019050919050565b60006020820190508181036000830152610ffd81610fc1565b9050919050565b60006060820190506110196000830186610d6b565b6110266020830185610d6b565b6110336040830184610dfd565b949350505050565b60008115159050919050565b6110508161103b565b811461105b57600080fd5b50565b60008151905061106d81611047565b92915050565b60006020828403121561108957611088610d95565b5b60006110978482850161105e565b91505092915050565b7f4e487b7100000000000000000000000000000000000000000000000000000000600052601160045260246000fd5b60006110da82610d9a565b91506110e583610d9a565b9250817fffffffffffffffffffffffffffffffffffffffffffffffffffffffffffffffff048311821515161561111e5761111d6110a0565b5b828202905092915050565b7f4e487b7100000000000000000000000000000000000000000000000000000000600052601260045260246000fd5b600061116382610d9a565b915061116e83610d9a565b92508261117e5761117d611129565b5b828204905092915050565b600061119482610d9a565b915061119f83610d9a565b9250827fffffffffffffffffffffffffffffffffffffffffffffffffffffffffffffffff038211156111d4576111d36110a0565b5b828201905092915050565b7f43616e2774207769746864726177207965740000000000000000000000000000600082015250565b6000611215601283610e80565b9150611220826111df565b602082019050919050565b6000602082019050818103600083015261124481611208565b9050919050565b7f756e636c61696d6564206465706f736974732065786973740000000000000000600082015250565b6000611281601883610e80565b915061128c8261124b565b602082019050919050565b600060208201905081810360008301526112b081611274565b9050919050565b60006040820190506112cc6000830185610d6b565b6112d96020830184610dfd565b9392505050565b7f4e6f206465706f736974206279206163636f756e740000000000000000000000600082015250565b6000611316601583610e80565b9150611321826112e0565b602082019050919050565b6000602082019050818103600083015261134581611309565b9050919050565b600061135782610d9a565b915061136283610d9a565b925082821015611375576113746110a0565b5b828203905092915050565b7f4465706f7369742074696d652065786365656400000000000000000000000000600082015250565b60006113b6601383610e80565b91506113c182611380565b602082019050919050565b600060208201905081810360008301526113e5816113a9565b9050919050565b60006113f782610d9a565b91507fffffffffffffffffffffffffffffffffffffffffffffffffffffffffffffffff82141561142a576114296110a0565b5b60018201905091905056fea264697066735822122079027b68786e8d16245cfdd95c9b9832974f291349aecc7ac1d88f9f2f1bf2fb64736f6c634300080a0033",
  "immutableReferences": {},
  "source": "// SPDX-License-Identifier: MIT\npragma solidity >=0.4.22 <0.9.0;\nimport \"@openzeppelin/contracts/interfaces/IERC20.sol\";\n\ncontract Bank {\n    address public coin;\n    address public owner;\n    uint256[3] public totalRewardPool;\n    uint256 public timePeriod;\n    uint256 public createTime;\n    mapping(address => uint256) public deposits;\n    uint256 public totalDeposits;\n\n    constructor(address _coin, uint256 _timePeriod) {\n        coin = _coin;\n        owner = msg.sender;\n        timePeriod = _timePeriod;\n        createTime = block.timestamp;\n    }\n\n    modifier onlyOwner() {\n        require(msg.sender == owner, \"not owner\");\n        _;\n    }\n\n    function setRewardPool(uint256 _amount) external onlyOwner {\n        require(totalRewardPool[0] == 0, \"RewardPool already set\");\n        require(_amount != 0, \"_amount can not be 0\");\n        IERC20(coin).transferFrom(msg.sender, address(this), _amount);\n        totalRewardPool[0] += (_amount * 20) / 100;\n        totalRewardPool[1] += (_amount * 30) / 100;\n        totalRewardPool[2] += (_amount * 50) / 100;\n    }\n\n    function deposit(uint256 _amount) external {\n        require(_amount != 0, \"_amount can not be 0\");\n        require(\n            block.timestamp <= (createTime + timePeriod),\n            \"Deposit time exceed\"\n        );\n        IERC20(coin).transferFrom(msg.sender, address(this), _amount);\n        deposits[msg.sender] += _amount;\n        totalDeposits += _amount;\n    }\n\n    function withdraw() external {\n        require(\n            block.timestamp > (createTime + (2 * timePeriod)),\n            \"Can't withdraw yet\"\n        );\n        require(deposits[msg.sender] > 0, \"No deposit by account\");\n        uint256 returnAmt = deposits[msg.sender] +\n            calculateReturnReward(deposits[msg.sender]);\n        totalDeposits -= deposits[msg.sender];\n        deposits[msg.sender] = 0;\n        IERC20(coin).transfer(msg.sender, returnAmt);\n    }\n\n    function withdrawRewardPool() external onlyOwner {\n        require(\n            block.timestamp > (createTime + (2 * timePeriod)),\n            \"Can't withdraw yet\"\n        );\n        require(totalDeposits == 0, \"unclaimed deposits exist\");\n        uint256 transferBack = totalRewardPool[0] +\n            totalRewardPool[1] +\n            totalRewardPool[2];\n        totalRewardPool[0] = 0;\n        totalRewardPool[1] = 0;\n        totalRewardPool[2] = 0;\n        IERC20(coin).transfer(msg.sender, transferBack);\n    }\n\n    function calculateReturnReward(uint256 _amountDeposited)\n        internal\n        returns (uint256)\n    {\n        uint256 timeSinceCreation = block.timestamp - createTime;\n        uint256 retPool;\n        if (timeSinceCreation < 2 * timePeriod) {\n            return 0;\n        } else if (timeSinceCreation < 3 * timePeriod) {\n            retPool = 1;\n        } else if (timeSinceCreation < 4 * timePeriod) {\n            retPool = 2;\n        } else {\n            retPool = 3;\n        }\n        return calculateAmount(_amountDeposited, retPool);\n    }\n\n    function calculateAmount(uint256 _amountDeposited, uint256 _retPool)\n        internal\n        returns (uint256)\n    {\n        uint256 rewardAmt;\n        for (uint256 i = 0; i < _retPool; i++) {\n            rewardAmt += totalRewardPool[i];\n            totalRewardPool[i] = 0;\n        }\n        uint256 amountRet = (_amountDeposited * rewardAmt) / totalDeposits;\n        totalRewardPool[_retPool] = rewardAmt - amountRet;\n        return amountRet;\n    }\n}\n",
  "sourcePath": "/home/badass/Documents/personal/work/trace_labs/contracts/Bank.sol",
  "compiler": {
    "name": "solc",
    "version": "0.8.10+commit.fc410830.Emscripten.clang"
  },
  "schemaVersion": "3.4.4",
  "updatedAt": "2022-02-10T16:31:19.902Z",
  "networkType": "ethereum",
  "devdoc": {
    "kind": "dev",
    "methods": {},
    "version": 1
  },
  "userdoc": {
    "kind": "user",
    "methods": {},
    "version": 1
  }
}