{
  "contractName": "Bank",
  "abi": [
    {
      "inputs": [
        {
          "internalType": "address",
          "name": "_coin",
          "type": "address"
        },
        {
          "internalType": "uint256",
          "name": "_timePeriod",
          "type": "uint256"
        }
      ],
      "stateMutability": "nonpayable",
      "type": "constructor"
    },
    {
      "inputs": [],
      "name": "coin",
      "outputs": [
        {
          "internalType": "address",
          "name": "",
          "type": "address"
        }
      ],
      "stateMutability": "view",
      "type": "function",
      "constant": true
    },
    {
      "inputs": [],
      "name": "createTime",
      "outputs": [
        {
          "internalType": "uint256",
          "name": "",
          "type": "uint256"
        }
      ],
      "stateMutability": "view",
      "type": "function",
      "constant": true
    },
    {
      "inputs": [
        {
          "internalType": "address",
          "name": "",
          "type": "address"
        }
      ],
      "name": "deposits",
      "outputs": [
        {
          "internalType": "uint256",
          "name": "",
          "type": "uint256"
        }
      ],
      "stateMutability": "view",
      "type": "function",
      "constant": true
    },
    {
      "inputs": [],
      "name": "owner",
      "outputs": [
        {
          "internalType": "address",
          "name": "",
          "type": "address"
        }
      ],
      "stateMutability": "view",
      "type": "function",
      "constant": true
    },
    {
      "inputs": [],
      "name": "timePeriod",
      "outputs": [
        {
          "internalType": "uint256",
          "name": "",
          "type": "uint256"
        }
      ],
      "stateMutability": "view",
      "type": "function",
      "constant": true
    },
    {
      "inputs": [],
      "name": "totalDeposits",
      "outputs": [
        {
          "internalType": "uint256",
          "name": "",
          "type": "uint256"
        }
      ],
      "stateMutability": "view",
      "type": "function",
      "constant": true
    },
    {
      "inputs": [
        {
          "internalType": "uint256",
          "name": "",
          "type": "uint256"
        }
      ],
      "name": "totalRewardPool",
      "outputs": [
        {
          "internalType": "uint256",
          "name": "",
          "type": "uint256"
        }
      ],
      "stateMutability": "view",
      "type": "function",
      "constant": true
    },
    {
      "inputs": [
        {
          "internalType": "uint256",
          "name": "_amount",
          "type": "uint256"
        }
      ],
      "name": "setRewardPool",
      "outputs": [],
      "stateMutability": "nonpayable",
      "type": "function"
    },
    {
      "inputs": [
        {
          "internalType": "uint256",
          "name": "_amount",
          "type": "uint256"
        }
      ],
      "name": "deposit",
      "outputs": [],
      "stateMutability": "nonpayable",
      "type": "function"
    },
    {
      "inputs": [],
      "name": "withdraw",
      "outputs": [],
      "stateMutability": "nonpayable",
      "type": "function"
    },
    {
      "inputs": [],
      "name": "withdrawRewardPool",
      "outputs": [],
      "stateMutability": "nonpayable",
      "type": "function"
    }
  ],
  "bytecode": "0x60806040523480156200001157600080fd5b50604051620016d1380380620016d1833981810160405281019062000037919062000173565b816000806101000a81548173ffffffffffffffffffffffffffffffffffffffff021916908373ffffffffffffffffffffffffffffffffffffffff16021790555033600160006101000a81548173ffffffffffffffffffffffffffffffffffffffff021916908373ffffffffffffffffffffffffffffffffffffffff16021790555080600581905550426006819055505050620001ba565b600080fd5b600073ffffffffffffffffffffffffffffffffffffffff82169050919050565b60006200010082620000d3565b9050919050565b6200011281620000f3565b81146200011e57600080fd5b50565b600081519050620001328162000107565b92915050565b6000819050919050565b6200014d8162000138565b81146200015957600080fd5b50565b6000815190506200016d8162000142565b92915050565b600080604083850312156200018d576200018c620000ce565b5b60006200019d8582860162000121565b9250506020620001b0858286016200015c565b9150509250929050565b61150780620001ca6000396000f3fe608060405234801561001057600080fd5b50600436106100a95760003560e01c806361dcd7ab1161007157806361dcd7ab1461011a5780637d882097146101385780638da5cb5b146101565780639e7a186f14610174578063b6b55f25146101a4578063fc7e286d146101c0576100a9565b806311df9995146100ae5780631da4ed85146100cc5780631e0e065f146100e85780633ccfd60b146100f25780633e79d1e1146100fc575b600080fd5b6100b66101f0565b6040516100c39190610daa565b60405180910390f35b6100e660048036038101906100e19190610e00565b610214565b005b6100f061047d565b005b6100fa610700565b005b6101046109b4565b6040516101119190610e3c565b60405180910390f35b6101226109ba565b60405161012f9190610e3c565b60405180910390f35b6101406109c0565b60405161014d9190610e3c565b60405180910390f35b61015e6109c6565b60405161016b9190610daa565b60405180910390f35b61018e60048036038101906101899190610e00565b6109ec565b60405161019b9190610e3c565b60405180910390f35b6101be60048036038101906101b99190610e00565b610a07565b005b6101da60048036038101906101d59190610e83565b610c0a565b6040516101e79190610e3c565b60405180910390f35b60008054906101000a900473ffffffffffffffffffffffffffffffffffffffff1681565b600160009054906101000a900473ffffffffffffffffffffffffffffffffffffffff1673ffffffffffffffffffffffffffffffffffffffff163373ffffffffffffffffffffffffffffffffffffffff16146102a4576040517f08c379a000000000000000000000000000000000000000000000000000000000815260040161029b90610f0d565b60405180910390fd5b600060026000600381106102bb576102ba610f2d565b5b0154146102fd576040517f08c379a00000000000000000000000000000000000000000000000000000000081526004016102f490610fa8565b60405180910390fd5b6000811415610341576040517f08c379a000000000000000000000000000000000000000000000000000000000815260040161033890611014565b60405180910390fd5b60008054906101000a900473ffffffffffffffffffffffffffffffffffffffff1673ffffffffffffffffffffffffffffffffffffffff166323b872dd3330846040518463ffffffff1660e01b815260040161039e93929190611034565b6020604051808303816000875af11580156103bd573d6000803e3d6000fd5b505050506040513d601f19601f820116820180604052508101906103e191906110a3565b5060646014826103f191906110ff565b6103fb9190611188565b60026000600381106104105761040f610f2d565b5b01819055506064601e8261042491906110ff565b61042e9190611188565b600260016003811061044357610442610f2d565b5b0181905550606460328261045791906110ff565b6104619190611188565b6002806003811061047557610474610f2d565b5b018190555050565b600160009054906101000a900473ffffffffffffffffffffffffffffffffffffffff1673ffffffffffffffffffffffffffffffffffffffff163373ffffffffffffffffffffffffffffffffffffffff161461050d576040517f08c379a000000000000000000000000000000000000000000000000000000000815260040161050490610f0d565b60405180910390fd5b600554600261051c91906110ff565b60065461052991906111b9565b421161056a576040517f08c379a00000000000000000000000000000000000000000000000000000000081526004016105619061125b565b60405180910390fd5b6000600854146105af576040517f08c379a00000000000000000000000000000000000000000000000000000000081526004016105a6906112c7565b60405180910390fd5b6000600280600381106105c5576105c4610f2d565b5b015460026001600381106105dc576105db610f2d565b5b015460026000600381106105f3576105f2610f2d565b5b01546105ff91906111b9565b61060991906111b9565b90506000600260006003811061062257610621610f2d565b5b01819055506000600260016003811061063e5761063d610f2d565b5b018190555060006002806003811061065957610658610f2d565b5b018190555060008054906101000a900473ffffffffffffffffffffffffffffffffffffffff1673ffffffffffffffffffffffffffffffffffffffff1663a9059cbb33836040518363ffffffff1660e01b81526004016106b99291906112e7565b6020604051808303816000875af11580156106d8573d6000803e3d6000fd5b505050506040513d601f19601f820116820180604052508101906106fc91906110a3565b5050565b600554600261070f91906110ff565b60065461071c91906111b9565b421161075d576040517f08c379a00000000000000000000000000000000000000000000000000000000081526004016107549061125b565b60405180910390fd5b6000600760003373ffffffffffffffffffffffffffffffffffffffff1673ffffffffffffffffffffffffffffffffffffffff16815260200190815260200160002054116107df576040517f08c379a00000000000000000000000000000000000000000000000000000000081526004016107d69061135c565b60405180910390fd5b6000610829600760003373ffffffffffffffffffffffffffffffffffffffff1673ffffffffffffffffffffffffffffffffffffffff16815260200190815260200160002054610c22565b600760003373ffffffffffffffffffffffffffffffffffffffff1673ffffffffffffffffffffffffffffffffffffffff1681526020019081526020016000205461087391906111b9565b9050600760003373ffffffffffffffffffffffffffffffffffffffff1673ffffffffffffffffffffffffffffffffffffffff16815260200190815260200160002054600860008282546108c6919061137c565b925050819055506000600760003373ffffffffffffffffffffffffffffffffffffffff1673ffffffffffffffffffffffffffffffffffffffff1681526020019081526020016000208190555060008054906101000a900473ffffffffffffffffffffffffffffffffffffffff1673ffffffffffffffffffffffffffffffffffffffff1663a9059cbb33836040518363ffffffff1660e01b815260040161096d9291906112e7565b6020604051808303816000875af115801561098c573d6000803e3d6000fd5b505050506040513d601f19601f820116820180604052508101906109b091906110a3565b5050565b60055481565b60065481565b60085481565b600160009054906101000a900473ffffffffffffffffffffffffffffffffffffffff1681565b600281600381106109fc57600080fd5b016000915090505481565b60006002600060038110610a1e57610a1d610f2d565b5b01541415610a61576040517f08c379a0000000000000000000000000000000000000000000000000000000008152600401610a58906113fc565b60405180910390fd5b6000811415610aa5576040517f08c379a0000000000000000000000000000000000000000000000000000000008152600401610a9c90611014565b60405180910390fd5b600554600654610ab591906111b9565b421115610af7576040517f08c379a0000000000000000000000000000000000000000000000000000000008152600401610aee90611468565b60405180910390fd5b60008054906101000a900473ffffffffffffffffffffffffffffffffffffffff1673ffffffffffffffffffffffffffffffffffffffff166323b872dd3330846040518463ffffffff1660e01b8152600401610b5493929190611034565b6020604051808303816000875af1158015610b73573d6000803e3d6000fd5b505050506040513d601f19601f82011682018060405250810190610b9791906110a3565b5080600760003373ffffffffffffffffffffffffffffffffffffffff1673ffffffffffffffffffffffffffffffffffffffff1681526020019081526020016000206000828254610be791906111b9565b925050819055508060086000828254610c0091906111b9565b9250508190555050565b60076020528060005260406000206000915090505481565b60008060065442610c33919061137c565b905060006005546002610c4691906110ff565b821015610c5857600092505050610cab565b6005546003610c6791906110ff565b821015610c775760019050610c9c565b6005546004610c8691906110ff565b821015610c965760029050610c9b565b600390505b5b610ca68482610cb0565b925050505b919050565b60008060005b83811015610d0f5760028160038110610cd257610cd1610f2d565b5b015482610cdf91906111b9565b9150600060028260038110610cf757610cf6610f2d565b5b01819055508080610d0790611488565b915050610cb6565b5060006008548286610d2191906110ff565b610d2b9190611188565b90508082610d39919061137c565b6002600186610d48919061137c565b60038110610d5957610d58610f2d565b5b0181905550809250505092915050565b600073ffffffffffffffffffffffffffffffffffffffff82169050919050565b6000610d9482610d69565b9050919050565b610da481610d89565b82525050565b6000602082019050610dbf6000830184610d9b565b92915050565b600080fd5b6000819050919050565b610ddd81610dca565b8114610de857600080fd5b50565b600081359050610dfa81610dd4565b92915050565b600060208284031215610e1657610e15610dc5565b5b6000610e2484828501610deb565b91505092915050565b610e3681610dca565b82525050565b6000602082019050610e516000830184610e2d565b92915050565b610e6081610d89565b8114610e6b57600080fd5b50565b600081359050610e7d81610e57565b92915050565b600060208284031215610e9957610e98610dc5565b5b6000610ea784828501610e6e565b91505092915050565b600082825260208201905092915050565b7f6e6f74206f776e65720000000000000000000000000000000000000000000000600082015250565b6000610ef7600983610eb0565b9150610f0282610ec1565b602082019050919050565b60006020820190508181036000830152610f2681610eea565b9050919050565b7f4e487b7100000000000000000000000000000000000000000000000000000000600052603260045260246000fd5b7f526577617264506f6f6c20616c72656164792073657400000000000000000000600082015250565b6000610f92601683610eb0565b9150610f9d82610f5c565b602082019050919050565b60006020820190508181036000830152610fc181610f85565b9050919050565b7f5f616d6f756e742063616e206e6f742062652030000000000000000000000000600082015250565b6000610ffe601483610eb0565b915061100982610fc8565b602082019050919050565b6000602082019050818103600083015261102d81610ff1565b9050919050565b60006060820190506110496000830186610d9b565b6110566020830185610d9b565b6110636040830184610e2d565b949350505050565b60008115159050919050565b6110808161106b565b811461108b57600080fd5b50565b60008151905061109d81611077565b92915050565b6000602082840312156110b9576110b8610dc5565b5b60006110c78482850161108e565b91505092915050565b7f4e487b7100000000000000000000000000000000000000000000000000000000600052601160045260246000fd5b600061110a82610dca565b915061111583610dca565b9250817fffffffffffffffffffffffffffffffffffffffffffffffffffffffffffffffff048311821515161561114e5761114d6110d0565b5b828202905092915050565b7f4e487b7100000000000000000000000000000000000000000000000000000000600052601260045260246000fd5b600061119382610dca565b915061119e83610dca565b9250826111ae576111ad611159565b5b828204905092915050565b60006111c482610dca565b91506111cf83610dca565b9250827fffffffffffffffffffffffffffffffffffffffffffffffffffffffffffffffff03821115611204576112036110d0565b5b828201905092915050565b7f43616e2774207769746864726177207965740000000000000000000000000000600082015250565b6000611245601283610eb0565b91506112508261120f565b602082019050919050565b6000602082019050818103600083015261127481611238565b9050919050565b7f756e636c61696d6564206465706f736974732065786973740000000000000000600082015250565b60006112b1601883610eb0565b91506112bc8261127b565b602082019050919050565b600060208201905081810360008301526112e0816112a4565b9050919050565b60006040820190506112fc6000830185610d9b565b6113096020830184610e2d565b9392505050565b7f4e6f206465706f736974206279206163636f756e740000000000000000000000600082015250565b6000611346601583610eb0565b915061135182611310565b602082019050919050565b6000602082019050818103600083015261137581611339565b9050919050565b600061138782610dca565b915061139283610dca565b9250828210156113a5576113a46110d0565b5b828203905092915050565b7f526577617264506f6f6c206e6f74207365740000000000000000000000000000600082015250565b60006113e6601283610eb0565b91506113f1826113b0565b602082019050919050565b60006020820190508181036000830152611415816113d9565b9050919050565b7f4465706f7369742074696d652065786365656400000000000000000000000000600082015250565b6000611452601383610eb0565b915061145d8261141c565b602082019050919050565b6000602082019050818103600083015261148181611445565b9050919050565b600061149382610dca565b91507fffffffffffffffffffffffffffffffffffffffffffffffffffffffffffffffff8214156114c6576114c56110d0565b5b60018201905091905056fea264697066735822122049df5a00e12a4610263d6b0548dc53dd6bb6ba883420fb678e3188347232e77364736f6c634300080a0033",
  "immutableReferences": {},
  "source": "// SPDX-License-Identifier: MIT\npragma solidity >=0.4.22 <0.9.0;\nimport \"@openzeppelin/contracts/interfaces/IERC20.sol\";\n\ncontract Bank {\n    address public coin;\n    address public owner;\n    uint256[3] public totalRewardPool;\n    uint256 public timePeriod;\n    uint256 public createTime;\n    mapping(address => uint256) public deposits;\n    uint256 public totalDeposits;\n\n    constructor(address _coin, uint256 _timePeriod) {\n        coin = _coin;\n        owner = msg.sender;\n        timePeriod = _timePeriod;\n        createTime = block.timestamp;\n    }\n\n    modifier onlyOwner() {\n        require(msg.sender == owner, \"not owner\");\n        _;\n    }\n\n    function setRewardPool(uint256 _amount) external onlyOwner {\n        require(totalRewardPool[0] == 0, \"RewardPool already set\");\n        require(_amount != 0, \"_amount can not be 0\");\n        IERC20(coin).transferFrom(msg.sender, address(this), _amount);\n        totalRewardPool[0] = (_amount * 20) / 100;\n        totalRewardPool[1] = (_amount * 30) / 100;\n        totalRewardPool[2] = (_amount * 50) / 100;\n    }\n\n    function deposit(uint256 _amount) external {\n        require(totalRewardPool[0] != 0, \"RewardPool not set\");\n        require(_amount != 0, \"_amount can not be 0\");\n        require(\n            block.timestamp <= (createTime + timePeriod),\n            \"Deposit time exceed\"\n        );\n        IERC20(coin).transferFrom(msg.sender, address(this), _amount);\n        deposits[msg.sender] += _amount;\n        totalDeposits += _amount;\n    }\n\n    function withdraw() external {\n        require(\n            block.timestamp > (createTime + (2 * timePeriod)),\n            \"Can't withdraw yet\"\n        );\n        require(deposits[msg.sender] > 0, \"No deposit by account\");\n        uint256 returnAmt = deposits[msg.sender] +\n            calculateReturnReward(deposits[msg.sender]);\n        totalDeposits -= deposits[msg.sender];\n        deposits[msg.sender] = 0;\n        IERC20(coin).transfer(msg.sender, returnAmt);\n    }\n\n    function withdrawRewardPool() external onlyOwner {\n        require(\n            block.timestamp > (createTime + (2 * timePeriod)),\n            \"Can't withdraw yet\"\n        );\n        require(totalDeposits == 0, \"unclaimed deposits exist\");\n        uint256 transferBack = totalRewardPool[0] +\n            totalRewardPool[1] +\n            totalRewardPool[2];\n        totalRewardPool[0] = 0;\n        totalRewardPool[1] = 0;\n        totalRewardPool[2] = 0;\n        IERC20(coin).transfer(msg.sender, transferBack);\n    }\n\n    function calculateReturnReward(uint256 _amountDeposited)\n        internal\n        returns (uint256)\n    {\n        uint256 timeSinceCreation = block.timestamp - createTime;\n        uint256 retPool;\n        if (timeSinceCreation < 2 * timePeriod) {\n            return 0;\n        } else if (timeSinceCreation < 3 * timePeriod) {\n            retPool = 1;\n        } else if (timeSinceCreation < 4 * timePeriod) {\n            retPool = 2;\n        } else {\n            retPool = 3;\n        }\n        return calculateAmount(_amountDeposited, retPool);\n    }\n\n    function calculateAmount(uint256 _amountDeposited, uint256 _retPool)\n        internal\n        returns (uint256)\n    {\n        uint256 rewardAmt;\n        for (uint256 i = 0; i < _retPool; i++) {\n            rewardAmt += totalRewardPool[i];\n            totalRewardPool[i] = 0;\n        }\n        uint256 amountRet = (_amountDeposited * rewardAmt) / totalDeposits;\n        totalRewardPool[_retPool-1] = rewardAmt - amountRet;\n        return amountRet;\n    }\n}\n",
  "sourcePath": "/home/badass/Documents/personal/work/trace_labs/contracts/Bank.sol",
  "compiler": {
    "name": "solc",
    "version": "0.8.10+commit.fc410830.Emscripten.clang"
  },
  "schemaVersion": "3.4.4",
  "updatedAt": "2022-02-11T14:52:02.934Z",
  "networkType": "ethereum",
  "devdoc": {
    "kind": "dev",
    "methods": {},
    "version": 1
  },
  "userdoc": {
    "kind": "user",
    "methods": {},
    "version": 1
  }
}