{
  "contractName": "Coin",
  "abi": [
    {
      "inputs": [],
      "stateMutability": "nonpayable",
      "type": "constructor"
    },
    {
      "anonymous": false,
      "inputs": [
        {
          "indexed": true,
          "internalType": "address",
          "name": "owner",
          "type": "address"
        },
        {
          "indexed": true,
          "internalType": "address",
          "name": "spender",
          "type": "address"
        },
        {
          "indexed": false,
          "internalType": "uint256",
          "name": "value",
          "type": "uint256"
        }
      ],
      "name": "Approval",
      "type": "event"
    },
    {
      "anonymous": false,
      "inputs": [
        {
          "indexed": true,
          "internalType": "address",
          "name": "from",
          "type": "address"
        },
        {
          "indexed": true,
          "internalType": "address",
          "name": "to",
          "type": "address"
        },
        {
          "indexed": false,
          "internalType": "uint256",
          "name": "value",
          "type": "uint256"
        }
      ],
      "name": "Transfer",
      "type": "event"
    },
    {
      "inputs": [],
      "name": "VERSION",
      "outputs": [
        {
          "internalType": "uint32",
          "name": "",
          "type": "uint32"
        }
      ],
      "stateMutability": "view",
      "type": "function",
      "constant": true
    },
    {
      "inputs": [
        {
          "internalType": "address",
          "name": "owner",
          "type": "address"
        },
        {
          "internalType": "address",
          "name": "spender",
          "type": "address"
        }
      ],
      "name": "allowance",
      "outputs": [
        {
          "internalType": "uint256",
          "name": "",
          "type": "uint256"
        }
      ],
      "stateMutability": "view",
      "type": "function",
      "constant": true
    },
    {
      "inputs": [
        {
          "internalType": "address",
          "name": "spender",
          "type": "address"
        },
        {
          "internalType": "uint256",
          "name": "amount",
          "type": "uint256"
        }
      ],
      "name": "approve",
      "outputs": [
        {
          "internalType": "bool",
          "name": "",
          "type": "bool"
        }
      ],
      "stateMutability": "nonpayable",
      "type": "function"
    },
    {
      "inputs": [
        {
          "internalType": "address",
          "name": "account",
          "type": "address"
        }
      ],
      "name": "balanceOf",
      "outputs": [
        {
          "internalType": "uint256",
          "name": "",
          "type": "uint256"
        }
      ],
      "stateMutability": "view",
      "type": "function",
      "constant": true
    },
    {
      "inputs": [],
      "name": "decimals",
      "outputs": [
        {
          "internalType": "uint8",
          "name": "",
          "type": "uint8"
        }
      ],
      "stateMutability": "view",
      "type": "function",
      "constant": true
    },
    {
      "inputs": [
        {
          "internalType": "address",
          "name": "spender",
          "type": "address"
        },
        {
          "internalType": "uint256",
          "name": "subtractedValue",
          "type": "uint256"
        }
      ],
      "name": "decreaseAllowance",
      "outputs": [
        {
          "internalType": "bool",
          "name": "",
          "type": "bool"
        }
      ],
      "stateMutability": "nonpayable",
      "type": "function"
    },
    {
      "inputs": [
        {
          "internalType": "address",
          "name": "spender",
          "type": "address"
        },
        {
          "internalType": "uint256",
          "name": "addedValue",
          "type": "uint256"
        }
      ],
      "name": "increaseAllowance",
      "outputs": [
        {
          "internalType": "bool",
          "name": "",
          "type": "bool"
        }
      ],
      "stateMutability": "nonpayable",
      "type": "function"
    },
    {
      "inputs": [],
      "name": "name",
      "outputs": [
        {
          "internalType": "string",
          "name": "",
          "type": "string"
        }
      ],
      "stateMutability": "view",
      "type": "function",
      "constant": true
    },
    {
      "inputs": [],
      "name": "symbol",
      "outputs": [
        {
          "internalType": "string",
          "name": "",
          "type": "string"
        }
      ],
      "stateMutability": "view",
      "type": "function",
      "constant": true
    },
    {
      "inputs": [],
      "name": "totalSupply",
      "outputs": [
        {
          "internalType": "uint256",
          "name": "",
          "type": "uint256"
        }
      ],
      "stateMutability": "view",
      "type": "function",
      "constant": true
    },
    {
      "inputs": [
        {
          "internalType": "address",
          "name": "to",
          "type": "address"
        },
        {
          "internalType": "uint256",
          "name": "amount",
          "type": "uint256"
        }
      ],
      "name": "transfer",
      "outputs": [
        {
          "internalType": "bool",
          "name": "",
          "type": "bool"
        }
      ],
      "stateMutability": "nonpayable",
      "type": "function"
    },
    {
      "inputs": [
        {
          "internalType": "address",
          "name": "from",
          "type": "address"
        },
        {
          "internalType": "address",
          "name": "to",
          "type": "address"
        },
        {
          "internalType": "uint256",
          "name": "amount",
          "type": "uint256"
        }
      ],
      "name": "transferFrom",
      "outputs": [
        {
          "internalType": "bool",
          "name": "",
          "type": "bool"
        }
      ],
      "stateMutability": "nonpayable",
      "type": "function"
    }
  ],
  "bytecode": "0x60806040523480156200001157600080fd5b506040518060400160405280600781526020017f58595a436f696e000000000000000000000000000000000000000000000000008152506040518060400160405280600381526020017f58595a000000000000000000000000000000000000000000000000000000000081525081600390805190602001906200009692919062000270565b508060049080519060200190620000af92919062000270565b505050620000e733601260ff16600a620000ca9190620004ad565b6359682f00620000db9190620004fe565b620000ed60201b60201c565b620006d2565b600073ffffffffffffffffffffffffffffffffffffffff168273ffffffffffffffffffffffffffffffffffffffff16141562000160576040517f08c379a00000000000000000000000000000000000000000000000000000000081526004016200015790620005c0565b60405180910390fd5b62000174600083836200026660201b60201c565b8060026000828254620001889190620005e2565b92505081905550806000808473ffffffffffffffffffffffffffffffffffffffff1673ffffffffffffffffffffffffffffffffffffffff1681526020019081526020016000206000828254620001df9190620005e2565b925050819055508173ffffffffffffffffffffffffffffffffffffffff16600073ffffffffffffffffffffffffffffffffffffffff167fddf252ad1be2c89b69c2b068fc378daa952ba7f163c4a11628f55a4df523b3ef8360405162000246919062000650565b60405180910390a362000262600083836200026b60201b60201c565b5050565b505050565b505050565b8280546200027e906200069c565b90600052602060002090601f016020900481019282620002a25760008555620002ee565b82601f10620002bd57805160ff1916838001178555620002ee565b82800160010185558215620002ee579182015b82811115620002ed578251825591602001919060010190620002d0565b5b509050620002fd919062000301565b5090565b5b808211156200031c57600081600090555060010162000302565b5090565b7f4e487b7100000000000000000000000000000000000000000000000000000000600052601160045260246000fd5b60008160011c9050919050565b6000808291508390505b6001851115620003ae5780860481111562000386576200038562000320565b5b6001851615620003965780820291505b8081029050620003a6856200034f565b945062000366565b94509492505050565b600082620003c957600190506200049c565b81620003d957600090506200049c565b8160018114620003f25760028114620003fd5762000433565b60019150506200049c565b60ff84111562000412576200041162000320565b5b8360020a9150848211156200042c576200042b62000320565b5b506200049c565b5060208310610133831016604e8410600b84101617156200046d5782820a90508381111562000467576200046662000320565b5b6200049c565b6200047c84848460016200035c565b9250905081840481111562000496576200049562000320565b5b81810290505b9392505050565b6000819050919050565b6000620004ba82620004a3565b9150620004c783620004a3565b9250620004f67fffffffffffffffffffffffffffffffffffffffffffffffffffffffffffffffff8484620003b7565b905092915050565b60006200050b82620004a3565b91506200051883620004a3565b9250817fffffffffffffffffffffffffffffffffffffffffffffffffffffffffffffffff048311821515161562000554576200055362000320565b5b828202905092915050565b600082825260208201905092915050565b7f45524332303a206d696e7420746f20746865207a65726f206164647265737300600082015250565b6000620005a8601f836200055f565b9150620005b58262000570565b602082019050919050565b60006020820190508181036000830152620005db8162000599565b9050919050565b6000620005ef82620004a3565b9150620005fc83620004a3565b9250827fffffffffffffffffffffffffffffffffffffffffffffffffffffffffffffffff0382111562000634576200063362000320565b5b828201905092915050565b6200064a81620004a3565b82525050565b60006020820190506200066760008301846200063f565b92915050565b7f4e487b7100000000000000000000000000000000000000000000000000000000600052602260045260246000fd5b60006002820490506001821680620006b557607f821691505b60208210811415620006cc57620006cb6200066d565b5b50919050565b6113b680620006e26000396000f3fe608060405234801561001057600080fd5b50600436106100b45760003560e01c806370a082311161007157806370a08231146101a357806395d89b41146101d3578063a457c2d7146101f1578063a9059cbb14610221578063dd62ed3e14610251578063ffa1ad7414610281576100b4565b806306fdde03146100b9578063095ea7b3146100d757806318160ddd1461010757806323b872dd14610125578063313ce567146101555780633950935114610173575b600080fd5b6100c161029f565b6040516100ce9190610c36565b60405180910390f35b6100f160048036038101906100ec9190610cf1565b610331565b6040516100fe9190610d4c565b60405180910390f35b61010f610354565b60405161011c9190610d76565b60405180910390f35b61013f600480360381019061013a9190610d91565b61035e565b60405161014c9190610d4c565b60405180910390f35b61015d61038d565b60405161016a9190610e00565b60405180910390f35b61018d60048036038101906101889190610cf1565b610396565b60405161019a9190610d4c565b60405180910390f35b6101bd60048036038101906101b89190610e1b565b610440565b6040516101ca9190610d76565b60405180910390f35b6101db610488565b6040516101e89190610c36565b60405180910390f35b61020b60048036038101906102069190610cf1565b61051a565b6040516102189190610d4c565b60405180910390f35b61023b60048036038101906102369190610cf1565b610604565b6040516102489190610d4c565b60405180910390f35b61026b60048036038101906102669190610e48565b610627565b6040516102789190610d76565b60405180910390f35b6102896106ae565b6040516102969190610ea7565b60405180910390f35b6060600380546102ae90610ef1565b80601f01602080910402602001604051908101604052809291908181526020018280546102da90610ef1565b80156103275780601f106102fc57610100808354040283529160200191610327565b820191906000526020600020905b81548152906001019060200180831161030a57829003601f168201915b5050505050905090565b60008061033c6106b3565b90506103498185856106bb565b600191505092915050565b6000600254905090565b6000806103696106b3565b9050610376858285610886565b610381858585610912565b60019150509392505050565b60006012905090565b6000806103a16106b3565b9050610435818585600160008673ffffffffffffffffffffffffffffffffffffffff1673ffffffffffffffffffffffffffffffffffffffff16815260200190815260200160002060008973ffffffffffffffffffffffffffffffffffffffff1673ffffffffffffffffffffffffffffffffffffffff168152602001908152602001600020546104309190610f52565b6106bb565b600191505092915050565b60008060008373ffffffffffffffffffffffffffffffffffffffff1673ffffffffffffffffffffffffffffffffffffffff168152602001908152602001600020549050919050565b60606004805461049790610ef1565b80601f01602080910402602001604051908101604052809291908181526020018280546104c390610ef1565b80156105105780601f106104e557610100808354040283529160200191610510565b820191906000526020600020905b8154815290600101906020018083116104f357829003601f168201915b5050505050905090565b6000806105256106b3565b90506000600160008373ffffffffffffffffffffffffffffffffffffffff1673ffffffffffffffffffffffffffffffffffffffff16815260200190815260200160002060008673ffffffffffffffffffffffffffffffffffffffff1673ffffffffffffffffffffffffffffffffffffffff168152602001908152602001600020549050838110156105eb576040517f08c379a00000000000000000000000000000000000000000000000000000000081526004016105e29061101a565b60405180910390fd5b6105f882868684036106bb565b60019250505092915050565b60008061060f6106b3565b905061061c818585610912565b600191505092915050565b6000600160008473ffffffffffffffffffffffffffffffffffffffff1673ffffffffffffffffffffffffffffffffffffffff16815260200190815260200160002060008373ffffffffffffffffffffffffffffffffffffffff1673ffffffffffffffffffffffffffffffffffffffff16815260200190815260200160002054905092915050565b600181565b600033905090565b600073ffffffffffffffffffffffffffffffffffffffff168373ffffffffffffffffffffffffffffffffffffffff16141561072b576040517f08c379a0000000000000000000000000000000000000000000000000000000008152600401610722906110ac565b60405180910390fd5b600073ffffffffffffffffffffffffffffffffffffffff168273ffffffffffffffffffffffffffffffffffffffff16141561079b576040517f08c379a00000000000000000000000000000000000000000000000000000000081526004016107929061113e565b60405180910390fd5b80600160008573ffffffffffffffffffffffffffffffffffffffff1673ffffffffffffffffffffffffffffffffffffffff16815260200190815260200160002060008473ffffffffffffffffffffffffffffffffffffffff1673ffffffffffffffffffffffffffffffffffffffff168152602001908152602001600020819055508173ffffffffffffffffffffffffffffffffffffffff168373ffffffffffffffffffffffffffffffffffffffff167f8c5be1e5ebec7d5bd14f71427d1e84f3dd0314c0f7b2291e5b200ac8c7c3b925836040516108799190610d76565b60405180910390a3505050565b60006108928484610627565b90507fffffffffffffffffffffffffffffffffffffffffffffffffffffffffffffffff811461090c57818110156108fe576040517f08c379a00000000000000000000000000000000000000000000000000000000081526004016108f5906111aa565b60405180910390fd5b61090b84848484036106bb565b5b50505050565b600073ffffffffffffffffffffffffffffffffffffffff168373ffffffffffffffffffffffffffffffffffffffff161415610982576040517f08c379a00000000000000000000000000000000000000000000000000000000081526004016109799061123c565b60405180910390fd5b600073ffffffffffffffffffffffffffffffffffffffff168273ffffffffffffffffffffffffffffffffffffffff1614156109f2576040517f08c379a00000000000000000000000000000000000000000000000000000000081526004016109e9906112ce565b60405180910390fd5b6109fd838383610b93565b60008060008573ffffffffffffffffffffffffffffffffffffffff1673ffffffffffffffffffffffffffffffffffffffff16815260200190815260200160002054905081811015610a83576040517f08c379a0000000000000000000000000000000000000000000000000000000008152600401610a7a90611360565b60405180910390fd5b8181036000808673ffffffffffffffffffffffffffffffffffffffff1673ffffffffffffffffffffffffffffffffffffffff16815260200190815260200160002081905550816000808573ffffffffffffffffffffffffffffffffffffffff1673ffffffffffffffffffffffffffffffffffffffff1681526020019081526020016000206000828254610b169190610f52565b925050819055508273ffffffffffffffffffffffffffffffffffffffff168473ffffffffffffffffffffffffffffffffffffffff167fddf252ad1be2c89b69c2b068fc378daa952ba7f163c4a11628f55a4df523b3ef84604051610b7a9190610d76565b60405180910390a3610b8d848484610b98565b50505050565b505050565b505050565b600081519050919050565b600082825260208201905092915050565b60005b83811015610bd7578082015181840152602081019050610bbc565b83811115610be6576000848401525b50505050565b6000601f19601f8301169050919050565b6000610c0882610b9d565b610c128185610ba8565b9350610c22818560208601610bb9565b610c2b81610bec565b840191505092915050565b60006020820190508181036000830152610c508184610bfd565b905092915050565b600080fd5b600073ffffffffffffffffffffffffffffffffffffffff82169050919050565b6000610c8882610c5d565b9050919050565b610c9881610c7d565b8114610ca357600080fd5b50565b600081359050610cb581610c8f565b92915050565b6000819050919050565b610cce81610cbb565b8114610cd957600080fd5b50565b600081359050610ceb81610cc5565b92915050565b60008060408385031215610d0857610d07610c58565b5b6000610d1685828601610ca6565b9250506020610d2785828601610cdc565b9150509250929050565b60008115159050919050565b610d4681610d31565b82525050565b6000602082019050610d616000830184610d3d565b92915050565b610d7081610cbb565b82525050565b6000602082019050610d8b6000830184610d67565b92915050565b600080600060608486031215610daa57610da9610c58565b5b6000610db886828701610ca6565b9350506020610dc986828701610ca6565b9250506040610dda86828701610cdc565b9150509250925092565b600060ff82169050919050565b610dfa81610de4565b82525050565b6000602082019050610e156000830184610df1565b92915050565b600060208284031215610e3157610e30610c58565b5b6000610e3f84828501610ca6565b91505092915050565b60008060408385031215610e5f57610e5e610c58565b5b6000610e6d85828601610ca6565b9250506020610e7e85828601610ca6565b9150509250929050565b600063ffffffff82169050919050565b610ea181610e88565b82525050565b6000602082019050610ebc6000830184610e98565b92915050565b7f4e487b7100000000000000000000000000000000000000000000000000000000600052602260045260246000fd5b60006002820490506001821680610f0957607f821691505b60208210811415610f1d57610f1c610ec2565b5b50919050565b7f4e487b7100000000000000000000000000000000000000000000000000000000600052601160045260246000fd5b6000610f5d82610cbb565b9150610f6883610cbb565b9250827fffffffffffffffffffffffffffffffffffffffffffffffffffffffffffffffff03821115610f9d57610f9c610f23565b5b828201905092915050565b7f45524332303a2064656372656173656420616c6c6f77616e63652062656c6f7760008201527f207a65726f000000000000000000000000000000000000000000000000000000602082015250565b6000611004602583610ba8565b915061100f82610fa8565b604082019050919050565b6000602082019050818103600083015261103381610ff7565b9050919050565b7f45524332303a20617070726f76652066726f6d20746865207a65726f2061646460008201527f7265737300000000000000000000000000000000000000000000000000000000602082015250565b6000611096602483610ba8565b91506110a18261103a565b604082019050919050565b600060208201905081810360008301526110c581611089565b9050919050565b7f45524332303a20617070726f766520746f20746865207a65726f20616464726560008201527f7373000000000000000000000000000000000000000000000000000000000000602082015250565b6000611128602283610ba8565b9150611133826110cc565b604082019050919050565b600060208201905081810360008301526111578161111b565b9050919050565b7f45524332303a20696e73756666696369656e7420616c6c6f77616e6365000000600082015250565b6000611194601d83610ba8565b915061119f8261115e565b602082019050919050565b600060208201905081810360008301526111c381611187565b9050919050565b7f45524332303a207472616e736665722066726f6d20746865207a65726f20616460008201527f6472657373000000000000000000000000000000000000000000000000000000602082015250565b6000611226602583610ba8565b9150611231826111ca565b604082019050919050565b6000602082019050818103600083015261125581611219565b9050919050565b7f45524332303a207472616e7366657220746f20746865207a65726f206164647260008201527f6573730000000000000000000000000000000000000000000000000000000000602082015250565b60006112b8602383610ba8565b91506112c38261125c565b604082019050919050565b600060208201905081810360008301526112e7816112ab565b9050919050565b7f45524332303a207472616e7366657220616d6f756e742065786365656473206260008201527f616c616e63650000000000000000000000000000000000000000000000000000602082015250565b600061134a602683610ba8565b9150611355826112ee565b604082019050919050565b600060208201905081810360008301526113798161133d565b905091905056fea264697066735822122022c97be417cd1131491f08a69a3037f10c3f529eaefc1412640662569fcd436c64736f6c634300080a0033",
  "immutableReferences": {},
  "source": "// SPDX-License-Identifier: MIT\npragma solidity ^0.8.9;\n\nimport \"@openzeppelin/contracts/token/ERC20/ERC20.sol\";\n\ncontract Coin is ERC20 {\n\n    uint32 public constant VERSION = 1;\n    uint8 private constant DECIMALS = 18;\n    uint256 private constant TOKEN_WEI = 10**uint256(DECIMALS);\n    uint256 private constant INITIAL_WHOLE_TOKENS = uint256(1.5 * (10**9));\n    uint256 private constant INITIAL_SUPPLY =\n        uint256(INITIAL_WHOLE_TOKENS) * uint256(TOKEN_WEI);\n\n    constructor() ERC20(\"XYZCoin\", \"XYZ\") {\n        _mint(msg.sender, INITIAL_SUPPLY);\n    }\n\n}",
  "sourcePath": "/home/badass/Documents/personal/work/trace_labs/contracts/Coin.sol",
  "compiler": {
    "name": "solc",
    "version": "0.8.10+commit.fc410830.Emscripten.clang"
  },
  "schemaVersion": "3.4.4",
  "updatedAt": "2022-02-10T16:31:19.894Z",
  "networkType": "ethereum",
  "devdoc": {
    "kind": "dev",
    "methods": {
      "allowance(address,address)": {
        "details": "See {IERC20-allowance}."
      },
      "approve(address,uint256)": {
        "details": "See {IERC20-approve}. NOTE: If `amount` is the maximum `uint256`, the allowance is not updated on `transferFrom`. This is semantically equivalent to an infinite approval. Requirements: - `spender` cannot be the zero address."
      },
      "balanceOf(address)": {
        "details": "See {IERC20-balanceOf}."
      },
      "decimals()": {
        "details": "Returns the number of decimals used to get its user representation. For example, if `decimals` equals `2`, a balance of `505` tokens should be displayed to a user as `5.05` (`505 / 10 ** 2`). Tokens usually opt for a value of 18, imitating the relationship between Ether and Wei. This is the value {ERC20} uses, unless this function is overridden; NOTE: This information is only used for _display_ purposes: it in no way affects any of the arithmetic of the contract, including {IERC20-balanceOf} and {IERC20-transfer}."
      },
      "decreaseAllowance(address,uint256)": {
        "details": "Atomically decreases the allowance granted to `spender` by the caller. This is an alternative to {approve} that can be used as a mitigation for problems described in {IERC20-approve}. Emits an {Approval} event indicating the updated allowance. Requirements: - `spender` cannot be the zero address. - `spender` must have allowance for the caller of at least `subtractedValue`."
      },
      "increaseAllowance(address,uint256)": {
        "details": "Atomically increases the allowance granted to `spender` by the caller. This is an alternative to {approve} that can be used as a mitigation for problems described in {IERC20-approve}. Emits an {Approval} event indicating the updated allowance. Requirements: - `spender` cannot be the zero address."
      },
      "name()": {
        "details": "Returns the name of the token."
      },
      "symbol()": {
        "details": "Returns the symbol of the token, usually a shorter version of the name."
      },
      "totalSupply()": {
        "details": "See {IERC20-totalSupply}."
      },
      "transfer(address,uint256)": {
        "details": "See {IERC20-transfer}. Requirements: - `to` cannot be the zero address. - the caller must have a balance of at least `amount`."
      },
      "transferFrom(address,address,uint256)": {
        "details": "See {IERC20-transferFrom}. Emits an {Approval} event indicating the updated allowance. This is not required by the EIP. See the note at the beginning of {ERC20}. NOTE: Does not update the allowance if the current allowance is the maximum `uint256`. Requirements: - `from` and `to` cannot be the zero address. - `from` must have a balance of at least `amount`. - the caller must have allowance for ``from``'s tokens of at least `amount`."
      }
    },
    "version": 1
  },
  "userdoc": {
    "kind": "user",
    "methods": {},
    "version": 1
  }
}